:100000000C9462000C948A000C948A000C948A0070
:100010000C948A000C948A000C948A000C948A0038
:100020000C948A000C948A000C948A000C948A0028
:100030000C948A000C948A000C948A000C948A0018
:100040000C942D020C948A000C949D020C9477025F
:100050000C948A000C948A000C948A000C948A00F8
:100060000C948A000C948A000000000024002700F1
:100070002A0000000000250028002B0000000000DE
:1000800023002600290004040404040404040202DA
:100090000202020203030303030301020408102007
:1000A0004080010204081020010204081020000012
:1000B0000008000201000003040700000000000027
:1000C0000000330511241FBECFEFD8E0DEBFCDBF47
:1000D00011E0A0E0B1E0EEE7FBE002C005900D9278
:1000E000A633B107D9F722E0A6E3B1E001C01D9223
:1000F000A436B207E1F710E0C2E6D0E004C02197D1
:10010000FE010E94B705C136D107C9F70E946503F9
:100110000C94BD050C940000833081F028F48130EC
:1001200099F08230A9F008958730A9F08830C9F09D
:100130008430B1F4809180008F7D03C08091800075
:100140008F7780938000089584B58F7784BD08955C
:1001500084B58F7DFBCF8091B0008F778093B00006
:1001600008958091B0008F7DF9CF1F93CF93DF93D7
:10017000282F30E0F901E255FF4F8491F901E6564E
:10018000FF4FD491F901EA57FF4FC491CC23A9F056
:10019000162F81110E948C00EC2FF0E0EE0FFF1F54
:1001A000EE58FF4FA591B4918FB7F894EC911111CF
:1001B00008C0D095DE23DC938FBFDF91CF911F91D4
:1001C0000895DE2BF8CFCF93DF9390E0FC01E65645
:1001D000FF4F24918A579F4FFC0184918823D1F0CF
:1001E00090E0880F991FFC01E859FF4FA591B49149
:1001F000FC01EE58FF4FC591D49161110EC09FB71D
:10020000F8948C91E22FE0958E238C932881E22341
:10021000E8839FBFDF91CF9108958FB7F894EC9159
:10022000E22BEC938FBFF6CF2FB7F89460915C026E
:1002300070915D0280915E0290915F022FBF0895E0
:10024000AF92BF92CF92DF92EF92FF920F931F93E4
:10025000CF93DF936C017B018B01040F151FEB0122
:100260005E01AE18BF08C017D10759F06991D601D9
:10027000ED91FC910190F081E02DC6010995892B4B
:1002800079F7C501DF91CF911F910F91FF90EF900A
:10029000DF90CF90BF90AF900895FC01538D448DB7
:1002A000252F30E0842F90E0821B930B541710F021
:1002B000CF96089501970895FC01918D828D98172E
:1002C00061F0A28DAE0FBF2FB11D5D968C91928D06
:1002D0009F5F9F73928F90E008958FEF9FEF089537
:1002E000FC01918D828D981731F0828DE80FF11D00
:1002F000858D90E008958FEF9FEF0895FC01918D1B
:10030000228D892F90E0805C9F4F821B91098F7313
:100310009927089586E391E00E947E0121E0892BD0
:1003200009F420E0822F089580E090E0892B29F0E5
:100330000E948A0181110C9400000895FC01A48D93
:10034000A80FB92FB11DA35ABF4F2C91848D90E0F7
:1003500001968F739927848FA689B7892C93A089DA
:10036000B1898C91837080648C93938D848D981364
:1003700006C00288F389E02D80818F7D80830895F7
:10038000EF92FF920F931F93CF93DF93EC0181E0E5
:10039000888F9B8D8C8D98131AC0E889F98980818C
:1003A00085FF15C09FB7F894EE89FF896083E889BF
:1003B000F98980818370806480839FBF81E090E0B1
:1003C000DF91CF911F910F91FF90EF900895F62E3E
:1003D0000B8D10E00F5F1F4F0F731127E02E8C8DD8
:1003E0008E110CC00FB607FCFACFE889F98980811D
:1003F00085FFF5CFCE010E949E01F1CFEB8DEC0F72
:10040000FD2FF11DE35AFF4FF0829FB7F8940B8F39
:10041000EA89FB8980818062CFCFCF93DF93EC01A3
:10042000888D8823B9F0AA89BB89E889F9898C91DC
:1004300085FD03C0808186FD0DC00FB607FCF7CF98
:100440008C9185FFF2CF808185FFEDCFCE010E9498
:100450009E01E9CFDF91CF9108951F920F920FB6C1
:100460000F9211242F933F938F939F93AF93BF933A
:1004700080915C0290915D02A0915E02B0915F025A
:1004800030915B0223E0230F2D3758F50196A11D13
:10049000B11D20935B0280935C0290935D02A09358
:1004A0005E02B0935F028091600290916102A09120
:1004B0006202B09163020196A11DB11D809360029A
:1004C00090936102A0936202B0936302BF91AF91D7
:1004D0009F918F913F912F910F900FBE0F901F9082
:1004E000189526E8230F0296A11DB11DD2CF1F92A9
:1004F0000F920FB60F9211242F933F934F935F9358
:100500006F937F938F939F93AF93BF93EF93FF93DB
:1005100086E391E00E949E01FF91EF91BF91AF9120
:100520009F918F917F916F915F914F913F912F910B
:100530000F900FBE0F901F9018951F920F920FB63D
:100540000F9211242F938F939F93EF93FF93E0913A
:100550004601F09147018081E0914C01F0914D01FD
:1005600082FD1BC0908180914F018F5F8F7320911E
:100570005001821741F0E0914F01F0E0EA5CFE4F3C
:10058000958F80934F01FF91EF919F918F912F91C4
:100590000F900FBE0F901F9018958081F4CFCF93CE
:1005A000DF93282F30E0F901E255FF4F8491F901E4
:1005B000E656FF4FD491F901EA57FF4FC491CC237F
:1005C000A1F081110E948C00EC2FF0E0EE0FFF1FD4
:1005D000E458FF4FA591B491EC91ED2381E090E0B8
:1005E00009F480E0DF91CF91089580E090E0FACFA8
:1005F0008E50806480937C0080917A008064809328
:100600007A0080917A0086FDFCCF809178009091ED
:10061000790008953FB7F89480916002909161024B
:10062000A0916202B091630226B5A89B05C02F3F3E
:1006300019F00196A11DB11D3FBFBA2FA92F982F08
:100640008827BC01CD01620F711D811D911D42E003
:10065000660F771F881F991F4A95D1F708958F92CB
:100660009F92AF92BF92CF92DF92EF92FF920E9441
:100670000A034B015C0184EFC82EDD24D394E12CE6
:10068000F12C0E940A03681979098A099B09683EBE
:10069000734081059105A8F321E0C21AD108E10851
:1006A000F10888EE880E83E0981EA11CB11CC114CD
:1006B000D104E104F10429F7FF90EF90DF90CF908F
:1006C000BF90AF909F908F900895789484B582608A
:1006D00084BD84B5816084BD85B5826085BD85B5E6
:1006E000816085BD80916E00816080936E00109264
:1006F00081008091810082608093810080918100DF
:10070000816080938100809180008160809380006F
:100710008091B10084608093B1008091B0008160CD
:100720008093B00080917A00846080937A008091F9
:100730007A00826080937A0080917A008160809351
:100740007A0080917A00806880937A001092C100CC
:10075000E0914601F091470182E08083E0914201FF
:10076000F09143011082E0914401F09145018FEC3A
:10077000808310924E01E0914A01F0914B0186E096
:100780008083E0914801F0914901808180618083FC
:10079000E0914801F0914901808188608083E09177
:1007A0004801F0914901808180688083E09148018F
:1007B000F091490180818F7D808306E211E0C6E1DE
:1007C000D1E0F880229661E08F2D0E94E300F801CD
:1007D00080810E5F1F4F61E00E94E30061E08F2D7A
:1007E0000E94B500F1E0C632DF0759F761E08AE008
:1007F0000E94E30060E08AE00E94B50060E082E0D1
:100800000E94E30060E083E00E94E30061E08BE08F
:100810000E94E30060E08BE00E94B50023E532E037
:10082000E3EDF1E081E090E0918380839383828324
:100830009583848397838683918780879387828734
:10084000958784879787868770962E173F0761F76D
:100850000E941401609357027093580280935902CA
:1008600090935A020E9414016093530270935402B1
:10087000809355029093560244244A9473E0572E75
:10088000612C712CE0E02E2EE0E03E2E0E9414013F
:1008900000915702109158022091590230915A024A
:1008A000601B710B820B930B603C744D8F4F9F4FFD
:1008B00008F0D8C0E0910201F091030193E0EE0F3F
:1008C000FF1F9A95E1F78091000190910101E80FD7
:1008D000F91FEE0FFF1FED52FE4F81E090E0918374
:1008E00080838EE00E94F80227E030E0DC010E9465
:1008F000B005A30192010E946005C7E0D0E0C21BD1
:10090000D30BD0930301C09302018FE00E94F80241
:1009100027E030E0DC010E94B005A30192010E94B3
:100920006005309301012093000143E0CC0FDD1FEF
:100930004A95E1F7C20FD31FCC0FDD1FCD52DE4F1A
:100940001982188263EDE62E61E0F62EC6E2D1E050
:100950008880229661E0882D0E94B50086E1C82E2D
:1009600081E0D82E10E000E0F701E00FF11FA08039
:10097000B180F6019080F2E0CF0ED11C6A2D892D56
:100980000E94B500AB2821F461E0892D0E94B500DA
:100990000E5F1F4F0031110539F760E0882D0E946E
:1009A000B50020E1E20EF11C81E0C633D80781F6E4
:1009B0000E9414010091530210915402209155029B
:1009C00030915602601B710B820B930B6938734197
:1009D0008105910570F10E94140120E137E240E0A9
:1009E00050E00E947F05237033272230310559F0F3
:1009F0002330310551F12130310591F161E08AE078
:100A00000E94B5000CC061E08AE00E94B5000E941F
:100A10002F0360E08AE00E94B5000E942F030E942D
:100A20001401609353027093540280935502909383
:100A300056022114310409F429CF0E948A01882327
:100A400009F424CF0E94000021CF82E00E94CF024F
:100A5000EC0183E00E94CF02219711F4019771F21B
:100A600060E0CDCFFFCFE6E3F1E01382128288EEA3
:100A700093E0A0E0B0E084839583A683B78388E009
:100A800091E09183808385EC90E09587848784EC66
:100A900090E09787868780EC90E0918B808B81EC4B
:100AA00090E0938B828B82EC90E0958B848B86EC2C
:100AB00090E0978B868B118E128E138E148E089574
:100AC000052E97FB1EF400940E94770557FD07D072
:100AD0000E947F0507FC03D04EF40C9477055095D7
:100AE0004095309521953F4F4F4F5F4F089590951A
:100AF0008095709561957F4F8F4F9F4F0895A1E22C
:100B00001A2EAA1BBB1BFD010DC0AA1FBB1FEE1F87
:100B1000FF1FA217B307E407F50720F0A21BB30BD2
:100B2000E40BF50B661F771F881F991F1A9469F74E
:100B300060957095809590959B01AC01BD01CF01AA
:100B40000895A29FB001B39FC001A39F700D811DA6
:100B50001124911DB29F700D811D1124911D0895C6
:100B60000E94A105B7FF0895821B930B0895EE0F15
:0E0B7000FF1F0590F491E02D0994F894FFCF3B
:100B7E000500050000000000C00120014D010D021E
:100B8E007E015C01700106000B000A0003001100DB
:100B9E0004000800090002000700130005000D0004
:060BAE0012000C00100013
:00000001FF
